{
  "contractName": "Poll",
  "abi": [
    {
      "inputs": [],
      "payable": false,
      "stateMutability": "nonpayable",
      "type": "constructor"
    },
    {
      "anonymous": false,
      "inputs": [
        {
          "indexed": false,
          "internalType": "uint256",
          "name": "id",
          "type": "uint256"
        },
        {
          "indexed": false,
          "internalType": "string",
          "name": "details",
          "type": "string"
        },
        {
          "indexed": false,
          "internalType": "uint256",
          "name": "voteCount",
          "type": "uint256"
        }
      ],
      "name": "confirmedIdeaCreated",
      "type": "event"
    },
    {
      "anonymous": false,
      "inputs": [
        {
          "indexed": false,
          "internalType": "address",
          "name": "secret",
          "type": "address"
        }
      ],
      "name": "newResident",
      "type": "event"
    },
    {
      "anonymous": false,
      "inputs": [
        {
          "indexed": false,
          "internalType": "uint256",
          "name": "voteCount",
          "type": "uint256"
        }
      ],
      "name": "votedIdea",
      "type": "event"
    },
    {
      "anonymous": false,
      "inputs": [
        {
          "indexed": false,
          "internalType": "uint256",
          "name": "id",
          "type": "uint256"
        },
        {
          "indexed": false,
          "internalType": "string",
          "name": "details",
          "type": "string"
        },
        {
          "indexed": false,
          "internalType": "uint256",
          "name": "voteCount",
          "type": "uint256"
        }
      ],
      "name": "votedIdea",
      "type": "event"
    },
    {
      "constant": true,
      "inputs": [
        {
          "internalType": "uint256",
          "name": "",
          "type": "uint256"
        }
      ],
      "name": "Ideas",
      "outputs": [
        {
          "internalType": "uint256",
          "name": "id",
          "type": "uint256"
        },
        {
          "internalType": "string",
          "name": "details",
          "type": "string"
        },
        {
          "internalType": "uint256",
          "name": "voteCount",
          "type": "uint256"
        }
      ],
      "payable": false,
      "stateMutability": "view",
      "type": "function"
    },
    {
      "constant": true,
      "inputs": [],
      "name": "confirmedIdeaCount",
      "outputs": [
        {
          "internalType": "uint256",
          "name": "",
          "type": "uint256"
        }
      ],
      "payable": false,
      "stateMutability": "view",
      "type": "function"
    },
    {
      "constant": true,
      "inputs": [],
      "name": "expiration",
      "outputs": [
        {
          "internalType": "uint256",
          "name": "",
          "type": "uint256"
        }
      ],
      "payable": false,
      "stateMutability": "view",
      "type": "function"
    },
    {
      "constant": true,
      "inputs": [
        {
          "internalType": "address",
          "name": "",
          "type": "address"
        }
      ],
      "name": "staffAccount",
      "outputs": [
        {
          "internalType": "bool",
          "name": "",
          "type": "bool"
        }
      ],
      "payable": false,
      "stateMutability": "view",
      "type": "function"
    },
    {
      "constant": true,
      "inputs": [],
      "name": "unconfirmedIdeaCount",
      "outputs": [
        {
          "internalType": "uint256",
          "name": "",
          "type": "uint256"
        }
      ],
      "payable": false,
      "stateMutability": "view",
      "type": "function"
    },
    {
      "constant": true,
      "inputs": [
        {
          "internalType": "address",
          "name": "",
          "type": "address"
        }
      ],
      "name": "verifiedAcc",
      "outputs": [
        {
          "internalType": "bool",
          "name": "",
          "type": "bool"
        }
      ],
      "payable": false,
      "stateMutability": "view",
      "type": "function"
    },
    {
      "constant": true,
      "inputs": [
        {
          "internalType": "address",
          "name": "",
          "type": "address"
        }
      ],
      "name": "voters",
      "outputs": [
        {
          "internalType": "bool",
          "name": "",
          "type": "bool"
        }
      ],
      "payable": false,
      "stateMutability": "view",
      "type": "function"
    },
    {
      "constant": false,
      "inputs": [
        {
          "internalType": "uint256",
          "name": "duration",
          "type": "uint256"
        }
      ],
      "name": "extend",
      "outputs": [],
      "payable": false,
      "stateMutability": "nonpayable",
      "type": "function"
    },
    {
      "constant": false,
      "inputs": [
        {
          "internalType": "address",
          "name": "_newresident",
          "type": "address"
        }
      ],
      "name": "addVerified",
      "outputs": [],
      "payable": false,
      "stateMutability": "nonpayable",
      "type": "function"
    },
    {
      "constant": false,
      "inputs": [
        {
          "internalType": "string",
          "name": "_newIdea",
          "type": "string"
        }
      ],
      "name": "staffAddIdea",
      "outputs": [],
      "payable": false,
      "stateMutability": "nonpayable",
      "type": "function"
    },
    {
      "constant": false,
      "inputs": [
        {
          "internalType": "string",
          "name": "_newIdea",
          "type": "string"
        }
      ],
      "name": "residentAddIdea",
      "outputs": [],
      "payable": false,
      "stateMutability": "nonpayable",
      "type": "function"
    },
    {
      "constant": false,
      "inputs": [
        {
          "internalType": "uint256",
          "name": "indexChoice",
          "type": "uint256"
        }
      ],
      "name": "vote",
      "outputs": [],
      "payable": false,
      "stateMutability": "nonpayable",
      "type": "function"
    },
    {
      "constant": false,
      "inputs": [],
      "name": "closePoll",
      "outputs": [],
      "payable": false,
      "stateMutability": "nonpayable",
      "type": "function"
    }
  ],
  "bytecode": "0x608060405234801561001057600080fd5b5033600090815260066020908152604091829020805460ff191660011790556103e8600a558151808301909252600982526854657374204964656160b81b90820152610064906001600160e01b0361006916565b610212565b60088054600190810191829055604080516060810182528381526020808201868152600083850181905295865260028252929094208151815591518051919492936100ba9390850192910190610177565b50604082015181600201559050507fe2e5e763e50d3be93387e9f5a37f848b25a741e21ce7073fb48c769965f3276a6008548260006040518084815260200180602001838152602001828103825284818151815260200191508051906020019080838360005b83811015610138578181015183820152602001610120565b50505050905090810190601f1680156101655780820380516001836020036101000a031916815260200191505b5094505050505060405180910390a150565b828054600181600116156101000203166002900490600052602060002090601f016020900481019282601f106101b857805160ff19168380011785556101e5565b828001600101855582156101e5579182015b828111156101e55782518255916020019190600101906101ca565b506101f19291506101f5565b5090565b61020f91905b808211156101f157600081556001016101fb565b90565b61088c806102216000396000f3fe608060405234801561001057600080fd5b50600436106100cf5760003560e01c806371a5e23d1161008c578063a3ec138d11610066578063a3ec138d14610266578063ed8c2aed1461028c578063edb44f6314610294578063f874ec5014610337576100cf565b806371a5e23d1461019b5780639714378c14610241578063a399bd231461025e576100cf565b80630121b93f146100d457806340447f6f146100f35780634665096d1461012d5780635143a977146101475780635dc84e321461014f57806368e5754014610175575b600080fd5b6100f1600480360360208110156100ea57600080fd5b50356103dd565b005b6101196004803603602081101561010957600080fd5b50356001600160a01b0316610446565b604080519115158252519081900360200190f35b61013561045b565b60408051918252519081900360200190f35b610135610461565b6100f16004803603602081101561016557600080fd5b50356001600160a01b0316610467565b6101196004803603602081101561018b57600080fd5b50356001600160a01b03166104e3565b6100f1600480360360208110156101b157600080fd5b8101906020810181356401000000008111156101cc57600080fd5b8201836020820111156101de57600080fd5b8035906020019184600183028401116401000000008311171561020057600080fd5b91908080601f0160208091040260200160405190810160405280939291908181526020018383808284376000920191909152509295506104f8945050505050565b6100f16004803603602081101561025757600080fd5b5035610606565b610135610632565b6101196004803603602081101561027c57600080fd5b50356001600160a01b0316610638565b6100f161064d565b6102b1600480360360208110156102aa57600080fd5b5035610670565b6040518084815260200180602001838152602001828103825284818151815260200191508051906020019080838360005b838110156102fa5781810151838201526020016102e2565b50505050905090810190601f1680156103275780820380516001836020036101000a031916815260200191505b5094505050505060405180910390f35b6100f16004803603602081101561034d57600080fd5b81019060208101813564010000000081111561036857600080fd5b82018360208201111561037a57600080fd5b8035906020019184600183028401116401000000008311171561039c57600080fd5b91908080601f01602080910402602001604051908101604052809392919081815260200183838082843760009201919091525092955061071d945050505050565b33600090815260208181526040808320805460ff191660019081179091558484526002808452938290209093018054909301928390558051928352517f92035e6dca4a83418a5ad6f53f316367efc122cb57e26063c78728f5b9f74a4a9281900390910190a150565b60076020526000908152604090205460ff1681565b600a5481565b60085481565b3360009081526006602052604090205460ff16151560011461048857600080fd5b6001600160a01b038116600081815260076020908152604091829020805460ff19166001179055815192835290517fc2e38e9cce8b12b8c9cac96f0967150c07601c221833d05e920b6b10575eeede9281900390910190a150565b60066020526000908152604090205460ff1681565b600880546001908101918290556040805160608101825283815260208082018681526000838501819052958652600282529290942081518155915180519194929361054993908501929101906107bc565b50604082015181600201559050507fe2e5e763e50d3be93387e9f5a37f848b25a741e21ce7073fb48c769965f3276a6008548260006040518084815260200180602001838152602001828103825284818151815260200191508051906020019080838360005b838110156105c75781810151838201526020016105af565b50505050905090810190601f1680156105f45780820380516001836020036101000a031916815260200191505b5094505050505060405180910390a150565b3360009081526006602052604090205460ff16151560011461062757600080fd5b600a80549091019055565b60095481565b60006020819052908152604090205460ff1681565b3360009081526006602052604090205460ff16151560011461066e57600080fd5b565b600b602090815260009182526040918290208054600180830180548651600293821615610100026000190190911692909204601f81018690048602830186019096528582529194929390929083018282801561070d5780601f106106e25761010080835404028352916020019161070d565b820191906000526020600020905b8154815290600101906020018083116106f057829003601f168201915b5050505050908060020154905083565b3360009081526007602052604090205460ff16151560011461073e57600080fd5b600a5442111561074d57600080fd5b600980541061075b57600080fd5b600980546001908101918290556040805160608101825283815260208082018681526000838501819052958652848252929094208151815591518051919492936107ab93908501929101906107bc565b506040820151816002015590505050565b828054600181600116156101000203166002900490600052602060002090601f016020900481019282601f106107fd57805160ff191683800117855561082a565b8280016001018555821561082a579182015b8281111561082a57825182559160200191906001019061080f565b5061083692915061083a565b5090565b61085491905b808211156108365760008155600101610840565b9056fea265627a7a72315820cc58e0af3392e59ea14fc7f5a3c47b40853463a351ce488911e19cdfec04271c64736f6c63430005100032",
  "source": "pragma solidity ^0.5.0;\n\ncontract Poll {\n\n  //Model an Idea\n  struct Idea {\n\t\tuint id;\n\t\tstring details;\n\t\tuint voteCount;\n\t}\n\n  //Store non-staff accounts that have voted\n  mapping(address => bool) public voters;\n\n  //Add or View Ideas\n  mapping (uint => Idea) unconfirmedIdeas;\n  mapping(uint => Idea) confirmedIdeas;\n  Idea winningIdea;\n\n  //Staff account with admin rights\n  mapping(address => bool) public staffAccount;\n\n  //Resident accounts who were pre-registered\n  mapping(address => bool) public verifiedAcc; // address of accounts to verify if they can vote\n\n  //Store counts of the different ideas\n  uint public confirmedIdeaCount;\n  uint public unconfirmedIdeaCount;\n  \n  //Duration for opencall for ideas period\n  uint public expiration;\n\n  mapping(uint => Idea) public Ideas;\n\n  event confirmedIdeaCreated(\n    uint id,\n    string details,\n    uint voteCount\n  );\n\n  event votedIdea(\n    uint voteCount\n  );\n\n  event newResident(\n    address secret\n    );\n\n  constructor() public{\n    // Add government account to the staffAccount list\n    staffAccount[msg.sender] = true;\n    expiration = 1000;\n    staffAddIdea(\"Test Idea\");\n  }\n\n  //Staff has the ability to extend the duration of the opencall\n  function extend(uint duration) public {\n    require(staffAccount[msg.sender] == true);\n\n    expiration = expiration + duration;\n  }\n\n  // For staff to add resident's address before the poll to allow them to vote\n  function addVerified(address _newresident) public{\n    require(staffAccount[msg.sender] == true);\n\n    verifiedAcc[_newresident] = true;\n\n    emit newResident(_newresident); \n  }\n\n  //Ideas added by the staff are automatically confirmed\n  function staffAddIdea(string memory _newIdea) public {\n    //require(staffAccount[msg.sender] == true);\n    confirmedIdeaCount ++;\n    confirmedIdeas[confirmedIdeaCount] = Idea(confirmedIdeaCount, _newIdea, 0);\n    emit confirmedIdeaCreated(confirmedIdeaCount, _newIdea, 0);}\n\n  //Ideas added by residents need to be confirmed by the staff\n  function residentAddIdea(string memory _newIdea) public{\n    require(verifiedAcc[msg.sender]==true);\n    require(now <= expiration);\n    require(unconfirmedIdeaCount < 9); // Ensures residents can only submit 9 ideas\n    unconfirmedIdeaCount ++;\n    unconfirmedIdeas[unconfirmedIdeaCount] = Idea(unconfirmedIdeaCount,_newIdea,0);}\n    \n  //Function for staff to approve unconfirmed ideas\n  function approveIdea(uint index) private {\n    require(staffAccount[msg.sender] == true);\n    require(confirmedIdeaCount < 10); //Ensures only 10 confirmed ideas\n\n    confirmedIdeaCount ++;\n    confirmedIdeas[confirmedIdeaCount] = unconfirmedIdeas[index];\n\n    unconfirmedIdeaCount --;\n    delete unconfirmedIdeas[index];\n  }\n\n  event votedIdea(\n    uint id,\n    string details,\n    uint voteCount\n  );\n  //Function to allow residents to vote on their favourite idea\n  function vote(uint indexChoice) public{\n    //require(voters[msg.sender] == false);\n\n    voters[msg.sender] = true;\n\n    confirmedIdeas[indexChoice].voteCount ++;\n\n    emit votedIdea(confirmedIdeas[indexChoice].voteCount);\n  }\n\n  //Allows the staff to close the poll and not accept any more votes\n  function closePoll() public{\n    require(staffAccount[msg.sender] == true);\n\n  }\n\n}\n",
  "sourcePath": "/home/typokills/Documents/Github/eth-todo-list/contracts/Poll.sol",
  "compiler": {
    "name": "solc",
    "version": "0.5.16+commit.9c3226ce.Emscripten.clang"
  },
  "schemaVersion": "3.0.23",
  "updatedAt": "2020-04-24T06:05:44.806Z",
  "devdoc": {
    "methods": {}
  },
  "userdoc": {
    "methods": {}
  }
}