{
  "contractName": "Poll",
  "abi": [
    {
      "inputs": [],
      "payable": false,
      "stateMutability": "nonpayable",
      "type": "constructor"
    },
    {
      "constant": true,
      "inputs": [
        {
          "internalType": "uint256",
          "name": "",
          "type": "uint256"
        }
      ],
      "name": "Ideas",
      "outputs": [
        {
          "internalType": "uint256",
          "name": "id",
          "type": "uint256"
        },
        {
          "internalType": "string",
          "name": "details",
          "type": "string"
        },
        {
          "internalType": "uint256",
          "name": "voteCount",
          "type": "uint256"
        }
      ],
      "payable": false,
      "stateMutability": "view",
      "type": "function"
    },
    {
      "constant": true,
      "inputs": [],
      "name": "confirmedIdeaCount",
      "outputs": [
        {
          "internalType": "uint256",
          "name": "",
          "type": "uint256"
        }
      ],
      "payable": false,
      "stateMutability": "view",
      "type": "function"
    },
    {
      "constant": true,
      "inputs": [
        {
          "internalType": "address",
          "name": "",
          "type": "address"
        }
      ],
      "name": "staffAccount",
      "outputs": [
        {
          "internalType": "bool",
          "name": "",
          "type": "bool"
        }
      ],
      "payable": false,
      "stateMutability": "view",
      "type": "function"
    },
    {
      "constant": true,
      "inputs": [],
      "name": "unconfirmedIdeaCount",
      "outputs": [
        {
          "internalType": "uint256",
          "name": "",
          "type": "uint256"
        }
      ],
      "payable": false,
      "stateMutability": "view",
      "type": "function"
    },
    {
      "constant": true,
      "inputs": [
        {
          "internalType": "address",
          "name": "",
          "type": "address"
        }
      ],
      "name": "verifiedAcc",
      "outputs": [
        {
          "internalType": "bool",
          "name": "",
          "type": "bool"
        }
      ],
      "payable": false,
      "stateMutability": "view",
      "type": "function"
    },
    {
      "constant": true,
      "inputs": [
        {
          "internalType": "address",
          "name": "",
          "type": "address"
        }
      ],
      "name": "voters",
      "outputs": [
        {
          "internalType": "bool",
          "name": "",
          "type": "bool"
        }
      ],
      "payable": false,
      "stateMutability": "view",
      "type": "function"
    },
    {
      "constant": false,
      "inputs": [
        {
          "internalType": "string",
          "name": "_newIdea",
          "type": "string"
        }
      ],
      "name": "staffAddIdea",
      "outputs": [],
      "payable": false,
      "stateMutability": "nonpayable",
      "type": "function"
    },
    {
      "constant": false,
      "inputs": [
        {
          "internalType": "string",
          "name": "_newIdea",
          "type": "string"
        }
      ],
      "name": "residentAddIdea",
      "outputs": [],
      "payable": false,
      "stateMutability": "nonpayable",
      "type": "function"
    }
  ],
  "bytecode": "0x608060405234801561001057600080fd5b506105de806100206000396000f3fe608060405234801561001057600080fd5b50600436106100885760003560e01c8063a399bd231161005b578063a399bd23146101af578063a3ec138d146101b7578063edb44f63146101dd578063f874ec501461028057610088565b806340447f6f1461008d5780635143a977146100c757806368e57540146100e157806371a5e23d14610107575b600080fd5b6100b3600480360360208110156100a357600080fd5b50356001600160a01b0316610326565b604080519115158252519081900360200190f35b6100cf61033b565b60408051918252519081900360200190f35b6100b3600480360360208110156100f757600080fd5b50356001600160a01b0316610341565b6101ad6004803603602081101561011d57600080fd5b81019060208101813564010000000081111561013857600080fd5b82018360208201111561014a57600080fd5b8035906020019184600183028401116401000000008311171561016c57600080fd5b91908080601f016020809104026020016040519081016040528093929190818152602001838380828437600092019190915250929550610356945050505050565b005b6100cf6103d9565b6100b3600480360360208110156101cd57600080fd5b50356001600160a01b03166103df565b6101fa600480360360208110156101f357600080fd5b50356103f4565b6040518084815260200180602001838152602001828103825284818151815260200191508051906020019080838360005b8381101561024357818101518382015260200161022b565b50505050905090810190601f1680156102705780820380516001836020036101000a031916815260200191505b5094505050505060405180910390f35b6101ad6004803603602081101561029657600080fd5b8101906020810181356401000000008111156102b157600080fd5b8201836020820111156102c357600080fd5b803590602001918460018302840111640100000000831117156102e557600080fd5b91908080601f0160208091040260200160405190810160405280939291908181526020018383808284376000920191909152509295506104a1945050505050565b60046020526000908152604090205460ff1681565b60055481565b60036020526000908152604090205460ff1681565b3360009081526003602052604090205460ff16151560011461037757600080fd5b60058054600190810191829055604080516060810182528381526020808201868152600083850181905295865260028252929094208151815591518051919492936103c8939085019291019061050e565b506040820151816002015590505050565b60065481565b60006020819052908152604090205460ff1681565b6007602090815260009182526040918290208054600180830180548651600293821615610100026000190190911692909204601f8101869004860283018601909652858252919492939092908301828280156104915780601f1061046657610100808354040283529160200191610491565b820191906000526020600020905b81548152906001019060200180831161047457829003601f168201915b5050505050908060020154905083565b3360009081526004602052604090205460ff1615156001146104c257600080fd5b600680546001908101918290556040805160608101825283815260208082018681526000838501819052958652848252929094208151815591518051919492936103c893908501929101905b828054600181600116156101000203166002900490600052602060002090601f016020900481019282601f1061054f57805160ff191683800117855561057c565b8280016001018555821561057c579182015b8281111561057c578251825591602001919060010190610561565b5061058892915061058c565b5090565b6105a691905b808211156105885760008155600101610592565b9056fea265627a7a723158205955f469f0c383a0782af9656c9b67611ec2d90ca6883e93b9ddfb5a87343d3c64736f6c63430005100032",
  "source": "pragma solidity ^0.5.0;\n\ncontract Poll {\n\n  //Model an Idea\n  struct Idea {\n\t\tuint id;\n\t\tstring details;\n\t\tuint voteCount;\n\t}\n\n  //Store non-staff accounts that have voted\n  mapping(address => bool) public voters;\n\n  //Add or View Ideas\n  mapping (uint => Idea) unconfirmedIdeas;\n  mapping(uint => Idea) confirmedIdeas;\n\n  //Staff account with admin rights\n  mapping(address => bool) public staffAccount;\n\n  //Resident accounts who were pre-registered\n  mapping(address => bool) public verifiedAcc; // address of accounts to verify if they can vote\n\n  //Store counts of the different ideas\n  uint public confirmedIdeaCount;\n  uint public unconfirmedIdeaCount;\n  \n  mapping(uint => Idea) public Ideas;\n\n  constructor() public{\n   // Add government account to the staffAccount list\n\n  }\n\n\n  function staffAddIdea(string memory _newIdea) public {\n    require(staffAccount[msg.sender] == true);\n    confirmedIdeaCount ++;\n    confirmedIdeas[confirmedIdeaCount] = Idea(confirmedIdeaCount, _newIdea, 0);}\n\n  function residentAddIdea(string memory _newIdea) public{\n    require(verifiedAcc[msg.sender]==true);\n    unconfirmedIdeaCount ++;\n    unconfirmedIdeas[unconfirmedIdeaCount] = Idea(unconfirmedIdeaCount,_newIdea,0);}\n\n  function approveIdea(uint index) private {\n    require(staffAccount[msg.sender] == true);\n\n    confirmedIdeaCount ++;\n    confirmedIdeas[confirmedIdeaCount] = unconfirmedIdeas[index];\n\n    unconfirmedIdeaCount --;\n    delete unconfirmedIdeas[index];\n  }\n}\n",
  "sourcePath": "/home/typokills/Documents/Github/eth-todo-list/contracts/Poll.sol",
  "compiler": {
    "name": "solc",
    "version": "0.5.16+commit.9c3226ce.Emscripten.clang"
  },
  "schemaVersion": "3.0.23",
  "updatedAt": "2020-04-22T10:05:37.781Z",
  "networkType": "ethereum",
  "devdoc": {
    "methods": {}
  },
  "userdoc": {
    "methods": {}
  }
}